{
  "_format": "hh3-artifact-1",
  "contractName": "WormholeToken",
  "sourceName": "contracts/WormholeToken.sol",
  "abi": [
    {
      "inputs": [
        {
          "internalType": "address",
          "name": "_privateTransferVerifier",
          "type": "address"
        }
      ],
      "stateMutability": "nonpayable",
      "type": "constructor"
    },
    {
      "inputs": [
        {
          "internalType": "address",
          "name": "spender",
          "type": "address"
        },
        {
          "internalType": "uint256",
          "name": "allowance",
          "type": "uint256"
        },
        {
          "internalType": "uint256",
          "name": "needed",
          "type": "uint256"
        }
      ],
      "name": "ERC20InsufficientAllowance",
      "type": "error"
    },
    {
      "inputs": [
        {
          "internalType": "address",
          "name": "sender",
          "type": "address"
        },
        {
          "internalType": "uint256",
          "name": "balance",
          "type": "uint256"
        },
        {
          "internalType": "uint256",
          "name": "needed",
          "type": "uint256"
        }
      ],
      "name": "ERC20InsufficientBalance",
      "type": "error"
    },
    {
      "inputs": [
        {
          "internalType": "address",
          "name": "approver",
          "type": "address"
        }
      ],
      "name": "ERC20InvalidApprover",
      "type": "error"
    },
    {
      "inputs": [
        {
          "internalType": "address",
          "name": "receiver",
          "type": "address"
        }
      ],
      "name": "ERC20InvalidReceiver",
      "type": "error"
    },
    {
      "inputs": [
        {
          "internalType": "address",
          "name": "sender",
          "type": "address"
        }
      ],
      "name": "ERC20InvalidSender",
      "type": "error"
    },
    {
      "inputs": [
        {
          "internalType": "address",
          "name": "spender",
          "type": "address"
        }
      ],
      "name": "ERC20InvalidSpender",
      "type": "error"
    },
    {
      "inputs": [],
      "name": "VerificationFailed",
      "type": "error"
    },
    {
      "anonymous": false,
      "inputs": [
        {
          "indexed": true,
          "internalType": "address",
          "name": "owner",
          "type": "address"
        },
        {
          "indexed": true,
          "internalType": "address",
          "name": "spender",
          "type": "address"
        },
        {
          "indexed": false,
          "internalType": "uint256",
          "name": "value",
          "type": "uint256"
        }
      ],
      "name": "Approval",
      "type": "event"
    },
    {
      "anonymous": false,
      "inputs": [
        {
          "indexed": false,
          "internalType": "uint256",
          "name": "leaf",
          "type": "uint256"
        }
      ],
      "name": "NewLeaf",
      "type": "event"
    },
    {
      "anonymous": false,
      "inputs": [
        {
          "indexed": true,
          "internalType": "uint256",
          "name": "accountNoteNullifier",
          "type": "uint256"
        },
        {
          "indexed": false,
          "internalType": "uint256",
          "name": "amount",
          "type": "uint256"
        }
      ],
      "name": "PrivateTransfer",
      "type": "event"
    },
    {
      "anonymous": false,
      "inputs": [
        {
          "indexed": true,
          "internalType": "address",
          "name": "from",
          "type": "address"
        },
        {
          "indexed": true,
          "internalType": "address",
          "name": "to",
          "type": "address"
        },
        {
          "indexed": false,
          "internalType": "uint256",
          "name": "value",
          "type": "uint256"
        }
      ],
      "name": "Transfer",
      "type": "event"
    },
    {
      "inputs": [],
      "name": "TOTAL_RECEIVED_DOMAIN",
      "outputs": [
        {
          "internalType": "uint256",
          "name": "",
          "type": "uint256"
        }
      ],
      "stateMutability": "view",
      "type": "function"
    },
    {
      "inputs": [
        {
          "internalType": "uint256",
          "name": "_amount",
          "type": "uint256"
        },
        {
          "internalType": "bytes32",
          "name": "_signatureHash",
          "type": "bytes32"
        },
        {
          "internalType": "uint256",
          "name": "_accountNoteHash",
          "type": "uint256"
        },
        {
          "internalType": "uint256",
          "name": "_accountNoteNullifier",
          "type": "uint256"
        },
        {
          "internalType": "uint256",
          "name": "_root",
          "type": "uint256"
        }
      ],
      "name": "_formatPublicInputs",
      "outputs": [
        {
          "internalType": "bytes32[]",
          "name": "",
          "type": "bytes32[]"
        }
      ],
      "stateMutability": "pure",
      "type": "function"
    },
    {
      "inputs": [
        {
          "internalType": "bytes32",
          "name": "message",
          "type": "bytes32"
        }
      ],
      "name": "_getMessageWithEthPrefix",
      "outputs": [
        {
          "internalType": "bytes",
          "name": "",
          "type": "bytes"
        }
      ],
      "stateMutability": "pure",
      "type": "function"
    },
    {
      "inputs": [
        {
          "internalType": "address",
          "name": "recipientAddress",
          "type": "address"
        },
        {
          "internalType": "uint256",
          "name": "amount",
          "type": "uint256"
        },
        {
          "components": [
            {
              "internalType": "address",
              "name": "relayerAddress",
              "type": "address"
            },
            {
              "internalType": "uint256",
              "name": "priorityFee",
              "type": "uint256"
            },
            {
              "internalType": "uint256",
              "name": "conversionRate",
              "type": "uint256"
            },
            {
              "internalType": "uint256",
              "name": "maxFee",
              "type": "uint256"
            },
            {
              "internalType": "address",
              "name": "feeToken",
              "type": "address"
            }
          ],
          "internalType": "struct FeeData",
          "name": "feeData",
          "type": "tuple"
        }
      ],
      "name": "_hashSignatureInputs",
      "outputs": [
        {
          "internalType": "bytes32",
          "name": "",
          "type": "bytes32"
        }
      ],
      "stateMutability": "pure",
      "type": "function"
    },
    {
      "inputs": [
        {
          "internalType": "address",
          "name": "owner",
          "type": "address"
        },
        {
          "internalType": "address",
          "name": "spender",
          "type": "address"
        }
      ],
      "name": "allowance",
      "outputs": [
        {
          "internalType": "uint256",
          "name": "",
          "type": "uint256"
        }
      ],
      "stateMutability": "view",
      "type": "function"
    },
    {
      "inputs": [],
      "name": "amountFreeTokens",
      "outputs": [
        {
          "internalType": "uint256",
          "name": "",
          "type": "uint256"
        }
      ],
      "stateMutability": "view",
      "type": "function"
    },
    {
      "inputs": [
        {
          "internalType": "address",
          "name": "spender",
          "type": "address"
        },
        {
          "internalType": "uint256",
          "name": "value",
          "type": "uint256"
        }
      ],
      "name": "approve",
      "outputs": [
        {
          "internalType": "bool",
          "name": "",
          "type": "bool"
        }
      ],
      "stateMutability": "nonpayable",
      "type": "function"
    },
    {
      "inputs": [
        {
          "internalType": "address",
          "name": "account",
          "type": "address"
        }
      ],
      "name": "balanceOf",
      "outputs": [
        {
          "internalType": "uint256",
          "name": "",
          "type": "uint256"
        }
      ],
      "stateMutability": "view",
      "type": "function"
    },
    {
      "inputs": [],
      "name": "decimals",
      "outputs": [
        {
          "internalType": "uint8",
          "name": "",
          "type": "uint8"
        }
      ],
      "stateMutability": "view",
      "type": "function"
    },
    {
      "inputs": [
        {
          "internalType": "address",
          "name": "_to",
          "type": "address"
        }
      ],
      "name": "getFreeTokens",
      "outputs": [],
      "stateMutability": "nonpayable",
      "type": "function"
    },
    {
      "inputs": [
        {
          "internalType": "uint256[3]",
          "name": "input",
          "type": "uint256[3]"
        }
      ],
      "name": "hashPoseidon2T3",
      "outputs": [
        {
          "internalType": "uint256",
          "name": "",
          "type": "uint256"
        }
      ],
      "stateMutability": "view",
      "type": "function"
    },
    {
      "inputs": [
        {
          "internalType": "uint256[6]",
          "name": "input",
          "type": "uint256[6]"
        }
      ],
      "name": "hashPoseidon2T6",
      "outputs": [
        {
          "internalType": "uint256",
          "name": "",
          "type": "uint256"
        }
      ],
      "stateMutability": "view",
      "type": "function"
    },
    {
      "inputs": [],
      "name": "name",
      "outputs": [
        {
          "internalType": "string",
          "name": "",
          "type": "string"
        }
      ],
      "stateMutability": "view",
      "type": "function"
    },
    {
      "inputs": [
        {
          "internalType": "uint256",
          "name": "",
          "type": "uint256"
        }
      ],
      "name": "nullifiers",
      "outputs": [
        {
          "internalType": "uint256",
          "name": "",
          "type": "uint256"
        }
      ],
      "stateMutability": "view",
      "type": "function"
    },
    {
      "inputs": [
        {
          "internalType": "uint256",
          "name": "_amount",
          "type": "uint256"
        },
        {
          "internalType": "address",
          "name": "_to",
          "type": "address"
        },
        {
          "components": [
            {
              "internalType": "address",
              "name": "relayerAddress",
              "type": "address"
            },
            {
              "internalType": "uint256",
              "name": "priorityFee",
              "type": "uint256"
            },
            {
              "internalType": "uint256",
              "name": "conversionRate",
              "type": "uint256"
            },
            {
              "internalType": "uint256",
              "name": "maxFee",
              "type": "uint256"
            },
            {
              "internalType": "address",
              "name": "feeToken",
              "type": "address"
            }
          ],
          "internalType": "struct FeeData",
          "name": "_feeData",
          "type": "tuple"
        },
        {
          "internalType": "uint256",
          "name": "_accountNoteHash",
          "type": "uint256"
        },
        {
          "internalType": "uint256",
          "name": "_accountNoteNullifier",
          "type": "uint256"
        },
        {
          "internalType": "uint256",
          "name": "_root",
          "type": "uint256"
        },
        {
          "internalType": "bytes",
          "name": "_snarkProof",
          "type": "bytes"
        }
      ],
      "name": "privateTransfer",
      "outputs": [],
      "stateMutability": "nonpayable",
      "type": "function"
    },
    {
      "inputs": [],
      "name": "privateTransferVerifier",
      "outputs": [
        {
          "internalType": "address",
          "name": "",
          "type": "address"
        }
      ],
      "stateMutability": "view",
      "type": "function"
    },
    {
      "inputs": [],
      "name": "root",
      "outputs": [
        {
          "internalType": "uint256",
          "name": "",
          "type": "uint256"
        }
      ],
      "stateMutability": "view",
      "type": "function"
    },
    {
      "inputs": [
        {
          "internalType": "uint256",
          "name": "",
          "type": "uint256"
        }
      ],
      "name": "roots",
      "outputs": [
        {
          "internalType": "bool",
          "name": "",
          "type": "bool"
        }
      ],
      "stateMutability": "view",
      "type": "function"
    },
    {
      "inputs": [],
      "name": "symbol",
      "outputs": [
        {
          "internalType": "string",
          "name": "",
          "type": "string"
        }
      ],
      "stateMutability": "view",
      "type": "function"
    },
    {
      "inputs": [],
      "name": "totalSupply",
      "outputs": [
        {
          "internalType": "uint256",
          "name": "",
          "type": "uint256"
        }
      ],
      "stateMutability": "view",
      "type": "function"
    },
    {
      "inputs": [
        {
          "internalType": "address",
          "name": "to",
          "type": "address"
        },
        {
          "internalType": "uint256",
          "name": "value",
          "type": "uint256"
        }
      ],
      "name": "transfer",
      "outputs": [
        {
          "internalType": "bool",
          "name": "",
          "type": "bool"
        }
      ],
      "stateMutability": "nonpayable",
      "type": "function"
    },
    {
      "inputs": [
        {
          "internalType": "address",
          "name": "from",
          "type": "address"
        },
        {
          "internalType": "address",
          "name": "to",
          "type": "address"
        },
        {
          "internalType": "uint256",
          "name": "value",
          "type": "uint256"
        }
      ],
      "name": "transferFrom",
      "outputs": [
        {
          "internalType": "bool",
          "name": "",
          "type": "bool"
        }
      ],
      "stateMutability": "nonpayable",
      "type": "function"
    },
    {
      "inputs": [],
      "name": "tree",
      "outputs": [
        {
          "internalType": "uint256",
          "name": "size",
          "type": "uint256"
        },
        {
          "internalType": "uint256",
          "name": "depth",
          "type": "uint256"
        }
      ],
      "stateMutability": "view",
      "type": "function"
    }
  ],
  "bytecode": "0x60806040526100106012600a6101d0565b61001d90620f42406101e5565b60095534801561002b575f5ffd5b50604051611db2380380611db283398101604081905261004a916101fc565b604051806040016040528060118152602001703d35bbb7b936b437b632b996ba37b5b2b760791b8152506040518060400160405280600581526020016415d493521360da1b81525081600390816100a191906102ba565b5060046100ae82826102ba565b5050600a80546001600160a01b0319166001600160a01b03939093169290921790915550610374565b634e487b7160e01b5f52601160045260245ffd5b6001815b60018411156101265780850481111561010a5761010a6100d7565b600184161561011857908102905b60019390931c9280026100ef565b935093915050565b5f8261013c575060016101ca565b8161014857505f6101ca565b816001811461015e576002811461016857610184565b60019150506101ca565b60ff841115610179576101796100d7565b50506001821b6101ca565b5060208310610133831016604e8410600b84101617156101a7575081810a6101ca565b6101b35f1984846100eb565b805f19048211156101c6576101c66100d7565b0290505b92915050565b5f6101de60ff84168361012e565b9392505050565b80820281158282048414176101ca576101ca6100d7565b5f6020828403121561020c575f5ffd5b81516001600160a01b03811681146101de575f5ffd5b634e487b7160e01b5f52604160045260245ffd5b600181811c9082168061024a57607f821691505b60208210810361026857634e487b7160e01b5f52602260045260245ffd5b50919050565b601f8211156102b557805f5260205f20601f840160051c810160208510156102935750805b601f840160051c820191505b818110156102b2575f815560010161029f565b50505b505050565b81516001600160401b038111156102d3576102d3610222565b6102e7816102e18454610236565b8461026e565b6020601f821160018114610319575f83156103025750848201515b5f19600385901b1c1916600184901b1784556102b2565b5f84815260208120601f198516915b828110156103485787850151825560209485019460019092019101610328565b508482101561036557868401515f19600387901b60f8161c191681555b50505050600190811b01905550565b611a31806103815f395ff3fe608060405234801561000f575f5ffd5b506004361061011b575f3560e01c806306fdde031461011f578063095ea7b31461013d57806318160ddd1461016057806323b872dd14610172578063313ce567146101855780633a53af40146101945780633d59e5e2146101a757806349a3df68146101bc5780634a2ef36a146101dc57806366678575146101ef57806370a08231146101f85780638d116b8414610220578063954c80591461023557806395d89b4114610255578063a9059cbb1461025d578063b567389414610270578063c03911b614610283578063c2b40ae414610296578063d21e82ab146102b8578063dd3d3b6b146102d7578063dd62ed3e146102ea578063ebf0c717146102fd578063fd54b22814610305575b5f5ffd5b610127610328565b604051610134919061131b565b60405180910390f35b61015061014b366004611348565b6103b8565b6040519015158152602001610134565b6002545b604051908152602001610134565b610150610180366004611370565b6103d1565b60405160128152602001610134565b6101646101a23660046113ee565b6103f4565b6101ba6101b5366004611454565b610491565b005b6101cf6101ca36600461146d565b6104a0565b60405161013491906114de565b6101646101ea3660046114f0565b6105a7565b61016460095481565b610164610206366004611454565b6001600160a01b03165f9081526020819052604090205490565b6101646d52454345495645445f544f54414c81565b600a54610248906001600160a01b031681565b6040516101349190611531565b6101276105d8565b61015061026b366004611348565b6105e7565b6101ba61027e366004611545565b6105f4565b61016461029136600461167d565b6108ba565b6101506102a43660046116b7565b60076020525f908152604090205460ff1681565b6101646102c63660046116b7565b60056020525f908152604090205481565b6101276102e53660046116b7565b610951565b6101646102f83660046116ce565b6109b0565b6101646109da565b600b54600c54610313919082565b60408051928352602083019190915201610134565b606060038054610337906116ff565b80601f0160208091040260200160405190810160405280929190818152602001828054610363906116ff565b80156103ae5780601f10610385576101008083540402835291602001916103ae565b820191905f5260205f20905b81548152906001019060200180831161039157829003601f168201915b5050505050905090565b5f336103c5818585610a53565b60019150505b92915050565b5f336103de858285610a65565b6103e9858585610ab6565b506001949350505050565b5f5f73382abef9789c1b5fee54c72bd9aaf7983726841c6001600160a01b0316836040516020016104259190611737565b60408051601f198184030181529082905261043f9161177e565b5f60405180830381855afa9150503d805f8114610477576040519150601f19603f3d011682016040523d82523d5f602084013e61047c565b606091505b509150508061048a90611789565b9392505050565b61049d81600954610b13565b50565b6040805160248082526104a082019092526060915f91906020820161048080368337019050509050865f1b815f815181106104dd576104dd6117ac565b602090810291909101015260015f5b602081101561053657878160208110610507576105076117ac565b1a8361051384846117d4565b81518110610523576105236117ac565b60209081029190910101526001016104ec565b50855f1b8260218151811061054d5761054d6117ac565b602002602001018181525050845f1b8260228151811061056f5761056f6117ac565b602002602001018181525050835f1b82602381518110610591576105916117ac565b6020908102919091010152509695505050505050565b5f5f73382abef9789c1b5fee54c72bd9aaf7983726841c6001600160a01b03168360405160200161042591906117e7565b606060048054610337906116ff565b5f336103c5818585610ab6565b5f848152600560205260409020541561064e5760405162461bcd60e51b81526020600482015260176024820152761b9d5b1b1a599a595c88185b1c9958591e48195e1a5cdd604a1b60448201526064015b60405180910390fd5b5f8381526007602052604090205460ff1661069a5760405162461bcd60e51b815260206004820152600c60248201526b1a5b9d985b1a59081c9bdbdd60a21b6044820152606401610645565b87866060013511156106fc5760405162461bcd60e51b815260206004820152602560248201527f6d6178466565206973206c6172676572207468616e2074686520616d6f756e74604482015264081cd95b9960da1b6064820152608401610645565b6107078860016117d4565b5f8581526005602052604081209190915561072c888a610291368b90038b018b61180e565b90505f61073c6020890189611454565b6001600160a01b03160361078157610755888a88610b4b565b845f51602061199c5f395f51905f528a60405161077491815260200190565b60405180910390a261080e565b5f61078f6020890189611454565b905060016107a060208a018a611454565b6001600160a01b0316036107b15750335b5f5f6107bd8a8d610bcf565b915091506107cc8b828b610b4b565b6107e35f6107dd60208d018d611454565b84610c9e565b875f51602061199c5f395f51905f528d60405161080291815260200190565b60405180910390a25050505b5f61081c8a838989896104a0565b600a54604051633a94343960e21b81529192506001600160a01b03169063ea50d0e49061085190879087908690600401611828565b6020604051808303815f875af115801561086d573d5f5f3e3d5ffd5b505050506040513d601f19601f82011682018060405250810190610891919061186e565b6108ae5760405163439cc0cd60e01b815260040160405180910390fd5b50505050505050505050565b5f5f6040518060c001604052806108d087610d9e565b81526020018581526020016108e7855f0151610d9e565b81526020018460200151815260200184604001518152602001846060015181525090505f8160405160200161091c919061188d565b6040516020818303038152906040528051906020012090505f61093e82610951565b8051602090910120979650505050505050565b60606040518060400160405280601c81526020017b0ca2ba3432b932bab69029b4b3b732b21026b2b9b9b0b3b29d05199960211b8152508260405160200161099a9291906118c0565b6040516020818303038152906040529050919050565b6001600160a01b039182165f90815260016020908152604080832093909416825291909152205490565b604051637a3e5e1d60e11b8152600b60048201525f9073__$81047e2420497af1f397e161c4153f8e32$__9063f47cbc3a90602401602060405180830381865af4158015610a2a573d5f5f3e3d5ffd5b505050506040513d601f19601f82011682018060405250810190610a4e91906118d8565b905090565b610a608383836001610daa565b505050565b5f610a7084846109b0565b90505f19811015610ab05781811015610aa257828183604051637dc7a0d960e11b8152600401610645939291906118ef565b610ab084848484035f610daa565b50505050565b6001600160a01b038316610adf575f604051634b637e8f60e11b81526004016106459190611531565b6001600160a01b038216610b08575f60405163ec442f0560e01b81526004016106459190611531565b610a60838383610c9e565b6001600160a01b038216610b3c575f60405163ec442f0560e01b81526004016106459190611531565b610b475f8383610c9e565b5050565b6001600160a01b038316610b7057600280548390039055610b6b81610e7c565b610b9c565b6001600160a01b0383165f9081526020819052604090208054830190819055610b9a848284610fb2565b505b6040518281526001600160a01b038416905f905f5160206119bc5f395f51905f52906020015b60405180910390a3505050565b5f8030610be260a0860160808701611454565b6001600160a01b031614610c525760405162461bcd60e51b815260206004820152603160248201527f616c7465726e6174697665207061796d656e7420746f6b656e73206973206e6f6044820152701d081a5b5c1b195b595b9d1959081e595d607a1b6064820152608401610645565b5f6040850135610c664860208801356117d4565b610c709190611910565b90505f610c7d8286611927565b90508186606001351015610c9357610c9361193a565b909590945092505050565b6001600160a01b038316610cc8578060025f828254610cbd91906117d4565b90915550610d259050565b6001600160a01b0383165f9081526020819052604090205481811015610d075783818360405163391434e360e21b8152600401610645939291906118ef565b6001600160a01b0384165f9081526020819052604090209082900390555b6001600160a01b038216610d4157600280548290039055610d6c565b6001600160a01b0382165f9081526020819052604090208054820190819055610d6a83826110d4565b505b816001600160a01b0316836001600160a01b03165f5160206119bc5f395f51905f5283604051610bc291815260200190565b6001600160a01b031690565b6001600160a01b038416610dd3575f60405163e602df0560e01b81526004016106459190611531565b6001600160a01b038316610dfc575f604051634a1406b160e11b81526004016106459190611531565b6001600160a01b038085165f9081526001602090815260408083209387168352929052208290558015610ab057826001600160a01b0316846001600160a01b03167f8c5be1e5ebec7d5bd14f71427d1e84f3dd0314c0f7b2291e5b200ac8c7c3b92584604051610e6e91815260200190565b60405180910390a350505050565b604051632f85497160e01b8152600b60048201526024810182905273__$81047e2420497af1f397e161c4153f8e32$__90632f85497190604401602060405180830381865af4158015610ed1573d5f5f3e3d5ffd5b505050506040513d601f19601f82011682018060405250810190610ef591906118d8565b506040518181525f5160206119dc5f395f51905f529060200160405180910390a1604051637a3e5e1d60e11b8152600b60048201526001906007905f9073__$81047e2420497af1f397e161c4153f8e32$__9063f47cbc3a906024015b602060405180830381865af4158015610f6d573d5f5f3e3d5ffd5b505050506040513d601f19601f82011682018060405250810190610f9191906118d8565b815260208101919091526040015f20805460ff191691151591909117905550565b6001600160a01b0383163203610fcb57610a6081610e7c565b5f610fd68484611182565b60405163bc167a3160e01b8152600b60048201526024810182905290915073__$81047e2420497af1f397e161c4153f8e32$__9063bc167a3190604401602060405180830381865af415801561102e573d5f5f3e3d5ffd5b505050506040513d601f19601f82011682018060405250810190611052919061186e565b156110655761106082610e7c565b610ab0565b6040805160028082526060820183525f9260208301908036833701905050905081815f81518110611098576110986117ac565b60200260200101818152505082816001815181106110b8576110b86117ac565b6020026020010181815250506110cd816111c2565b5050505050565b6001600160a01b03821632036110e8575050565b5f6110f38383611182565b60405163bc167a3160e01b8152600b60048201526024810182905290915073__$81047e2420497af1f397e161c4153f8e32$__9063bc167a3190604401602060405180830381865af415801561114b573d5f5f3e3d5ffd5b505050506040513d601f19601f8201168201806040525081019061116f919061186e565b1561117957505050565b610a6081610e7c565b5f61118b6112cf565b61119484610d9e565b8152602081018390526d52454345495645445f544f54414c60408201526111ba816105a7565b949350505050565b604051630649a08560e01b815273__$81047e2420497af1f397e161c4153f8e32$__90630649a085906111fc90600b90859060040161194e565b602060405180830381865af4158015611217573d5f5f3e3d5ffd5b505050506040513d601f19601f8201168201806040525081019061123b91906118d8565b505f5b815181101561128e575f5160206119dc5f395f51905f52828281518110611267576112676117ac565b602002602001015160405161127e91815260200190565b60405180910390a160010161123e565b50604051637a3e5e1d60e11b8152600b60048201526001906007905f9073__$81047e2420497af1f397e161c4153f8e32$__9063f47cbc3a90602401610f52565b60405180606001604052806003906020820280368337509192915050565b5f81518084528060208401602086015e5f602082860101526020601f19601f83011685010191505092915050565b602081525f61048a60208301846112ed565b80356001600160a01b0381168114611343575f5ffd5b919050565b5f5f60408385031215611359575f5ffd5b6113628361132d565b946020939093013593505050565b5f5f5f60608486031215611382575f5ffd5b61138b8461132d565b92506113996020850161132d565b929592945050506040919091013590565b634e487b7160e01b5f52604160045260245ffd5b604051601f8201601f191681016001600160401b03811182821017156113e6576113e66113aa565b604052919050565b5f60c082840312156113fe575f5ffd5b5f83601f84011261140d575f5ffd5b505f8061141a60c06113be565b905080915060c084018581111561142f575f5ffd5b845b81811015611449578035845260209384019301611431565b509095945050505050565b5f60208284031215611464575f5ffd5b61048a8261132d565b5f5f5f5f5f60a08688031215611481575f5ffd5b505083359560208501359550604085013594606081013594506080013592509050565b5f8151808452602084019350602083015f5b828110156114d45781518652602095860195909101906001016114b6565b5093949350505050565b602081525f61048a60208301846114a4565b5f60608284031215611500575f5ffd5b5f83601f84011261150f575f5ffd5b505f8061151c60606113be565b9050809150606084018581111561142f575f5ffd5b6001600160a01b0391909116815260200190565b5f5f5f5f5f5f5f5f888a0361016081121561155e575f5ffd5b8935985061156e60208b0161132d565b975060a0603f1982011215611581575f5ffd5b5060408901955060e08901359450610100890135935061012089013592506101408901356001600160401b038111156115b8575f5ffd5b8901601f81018b136115c8575f5ffd5b80356001600160401b038111156115dd575f5ffd5b8b60208284010111156115ee575f5ffd5b989b979a50959850939692959194602001935050565b5f60a08284031215611614575f5ffd5b60405160a081016001600160401b0381118282101715611636576116366113aa565b6040529050806116458361132d565b81526020838101359082015260408084013590820152606080840135908201526116716080840161132d565b60808201525092915050565b5f5f5f60e0848603121561168f575f5ffd5b6116988461132d565b9250602084013591506116ae8560408601611604565b90509250925092565b5f602082840312156116c7575f5ffd5b5035919050565b5f5f604083850312156116df575f5ffd5b6116e88361132d565b91506116f66020840161132d565b90509250929050565b600181811c9082168061171357607f821691505b60208210810361173157634e487b7160e01b5f52602260045260245ffd5b50919050565b60c0810181835f5b600681101561175e57815183526020928301929091019060010161173f565b50505092915050565b5f81518060208401855e5f93019283525090919050565b5f61048a8284611767565b80516020808301519190811015611731575f1960209190910360031b1b16919050565b634e487b7160e01b5f52603260045260245ffd5b634e487b7160e01b5f52601160045260245ffd5b808201808211156103cb576103cb6117c0565b6060810181835f5b600381101561175e5781518352602092830192909101906001016117ef565b5f60a0828403121561181e575f5ffd5b61048a8383611604565b60408152826040820152828460608301375f606084830101525f601f19601f8501168201606083820301602084015261186460608201856114a4565b9695505050505050565b5f6020828403121561187e575f5ffd5b8151801515811461048a575f5ffd5b5f8183825b60068110156118b1578151835260209283019290910190600101611892565b50505060c08201905092915050565b5f6118cb8285611767565b9283525050602001919050565b5f602082840312156118e8575f5ffd5b5051919050565b6001600160a01b039390931683526020830191909152604082015260600190565b80820281158282048414176103cb576103cb6117c0565b818103818111156103cb576103cb6117c0565b634e487b7160e01b5f52600160045260245ffd5b5f60408201848352604060208401528084518083526060850191506020860192505f5b8181101561198f578351835260209384019390920191600101611971565b5090969550505050505056fefc5045226225bb2bdc6cc6f3d6457b8640a63a03d47a70eca2a9f6b3b6474d04ddf252ad1be2c89b69c2b068fc378daa952ba7f163c4a11628f55a4df523b3ef297d88d6449509e687c2769e1358fbeb521f447c0ec5786c512f8f9676b4d9b1a264697066735822122097be39ad844226e7c24745f02103fd51af92665fd7f07423fa776231531e219a64736f6c634300081c0033",
  "linkReferences": {
    "project/contracts/leanIMTPoseidon2.sol": {
      "leanIMTPoseidon2": [
        {
          "length": 20,
          "start": 3443
        },
        {
          "length": 20,
          "start": 4634
        },
        {
          "length": 20,
          "start": 4789
        },
        {
          "length": 20,
          "start": 4983
        },
        {
          "length": 20,
          "start": 5268
        },
        {
          "length": 20,
          "start": 5458
        },
        {
          "length": 20,
          "start": 5678
        }
      ]
    }
  },
  "deployedLinkReferences": {
    "project/contracts/leanIMTPoseidon2.sol": {
      "leanIMTPoseidon2": [
        {
          "length": 20,
          "start": 2546
        },
        {
          "length": 20,
          "start": 3737
        },
        {
          "length": 20,
          "start": 3892
        },
        {
          "length": 20,
          "start": 4086
        },
        {
          "length": 20,
          "start": 4371
        },
        {
          "length": 20,
          "start": 4561
        },
        {
          "length": 20,
          "start": 4781
        }
      ]
    }
  },
  "immutableReferences": {},
  "inputSourceName": "project/contracts/WormholeToken.sol",
  "buildInfoId": "solc-0_8_28-2b4433c1a50545ccc14038199be46e17b7db4bd0"
}